:100000000C945C000C9479000C9479000C947900A9
:100010000C9479000C9479000C9479000C9479007C
:100020000C9479000C9479000C9479000C9479006C
:100030000C9479000C9479000C9479000C9479005C
:100040000C943D010C9479000C9479000C94790087
:100050000C9479000C9479000C9479000C9479003C
:100060000C9479000C947900000000080002010053
:100070000003040700000000000000000000000072
:10008000250028002B0000000000240027002A0083
:10009000040404040404040402020202020203032E
:1000A0000303030301020408102040800102040836
:1000B000102001020408102011241FBECFEFD8E049
:1000C000DEBFCDBF11E0A0E0B1E0E4EAF5E002C0A0
:1000D00005900D92AC30B107D9F721E0ACE0B1E06A
:1000E00001C01D92A531B207E1F70E9487010C946F
:1000F000D0020C94000090E0FC01EC55FF4F2491DD
:1001000080579F4FFC018491882399F090E0880FDD
:10011000991FFC01EA57FF4FA591B491FC01E458E7
:10012000FF4F859194918FB7F894EC91E22BEC936B
:100130008FBF089590E0FC01E859FF4F2491FC0126
:10014000EC55FF4F3491FC01E057FF4FE491EE2353
:10015000C9F0222339F0233001F1A8F4213019F13C
:10016000223029F1F0E0EE0FFF1FE458FF4FA59178
:10017000B4918FB7F894EC91611126C030953E236D
:100180003C938FBF08952730A9F02830C9F0243060
:1001900049F7809180008F7D03C0809180008F7728
:1001A00080938000DFCF84B58F7784BDDBCF84B5AB
:1001B0008F7DFBCF8091B0008F778093B000D2CF3E
:1001C0008091B0008F7DF9CF3E2BDACF3FB7F89406
:1001D00080910D0190910E01A0910F01B09110013D
:1001E00026B5A89B05C02F3F19F00196A11DB11D92
:1001F0003FBFBA2FA92F982F8827BC01CD01620FCE
:10020000711D811D911D42E0660F771F881F991F88
:100210004A95D1F708958F929F92AF92BF92CF9255
:10022000DF92EF92FF924B015C010E94E6006B01AE
:100230007C010E94E6006C197D098E099F09683EC9
:10024000734081059105A8F321E0821A9108A10865
:10025000B10888EEC80E83E0D81EE11CF11C8114A1
:100260009104A104B10429F7FF90EF90DF90CF90A3
:10027000BF90AF909F908F9008951F920F920FB6EE
:100280000F9211242F933F938F939F93AF93BF931C
:100290008091110190911201A0911301B09114016C
:1002A00030910C0123E0230F2D3758F50196A11D45
:1002B000B11D20930C018093110190931201A09322
:1002C0001301B093140180910D0190910E01A09142
:1002D0000F01B09110010196A11DB11D80930D0178
:1002E00090930E01A0930F01B0931001BF91AF91B5
:1002F0009F918F913F912F910F900FBE0F901F9064
:10030000189526E8230F0296A11DB11DD2CF78942F
:1003100084B5826084BD84B5816084BD85B582600A
:1003200085BD85B5816085BD80916E0081608093BB
:100330006E00109281008091810082608093810024
:100340008091810081608093810080918000816034
:10035000809380008091B10084608093B10080918F
:10036000B00081608093B00080917A0084608093B7
:100370007A0080917A00826080937A0080917A007E
:10038000816080937A0080917A00806880937A00FF
:100390001092C10082E00E947B0083E00E947B00FB
:1003A00084E00E947B0085E00E947B0086E00E9442
:1003B0007B0087E00E947B0088E00E947B008EE04B
:1003C0000E947B008FE00E947B0080E10E947B0006
:1003D00081E10E947B0082E10E947B0060E082E07C
:1003E0000E949A0060E083E00E949A0060E084E04E
:1003F0000E949A0060E085E00E949A0060E086E03A
:100400000E949A0060E087E00E949A0060E088E025
:100410000E949A0061E08EE00E949A0061E08FE005
:100420000E949A0061E080E10E949A0061E081E10F
:100430000E949A0061E082E10E949A0085E0E82E25
:1004400081E0F82E90E0C92E90E0D92EC5E0D1E0F1
:100450008FB7F8948090110190901201A090130131
:10046000B09014018FBF092C000CAA08BB082FB74D
:10047000F8948091110190911201A0911301B09113
:1004800014012FBF88199909AA09BB09843F91401B
:10049000A105B10508F500E011E0688061E0862D56
:1004A0000E949A00F80171908F0160E0872D0E94F0
:1004B0009A0061E070E080E090E00E940B0160E053
:1004C000862D0E949A0061E0872D0E949A00F1E03B
:1004D00005301F0711F7CBCF6AE070E080E090E0B5
:1004E0000E940B01219621E0CC30D20709F0B0CF59
:1004F000C0E0D1E08FB7F894809011019090120184
:10050000A0901301B09014018FBF092C000CAA0811
:10051000BB082FB7F8948091110190911201A0911E
:100520001301B09114012FBF88199909AA09BB09B9
:10053000843F9140A105B10508F505E011E0F801FF
:1005400061908F0161E0862D0E949A00788060E0C2
:10055000872D0E949A0061E070E080E090E00E94A8
:100560000B0160E0862D0E949A0061E0872D0E94B9
:100570009A00F1E00C301F0711F7CBCF6AE070E072
:1005800080E090E00E940B012196EC16FD0609F038
:10059000B1CFC114D10409F459CF0E94000056CF45
:0405A000F894FFCFFD
:0C05A4000E0F10111202030405060708D8
:00000001FF
